:020000040800F2
:1000000050040020D9010008D71100081F11000872
:10001000D5110008F50200082514000800000000B2
:10002000000000000000000000000000DB110008DC
:10003000F702000800000000D9110008DD110008D7
:10004000F3010008F3010008F3010008F3010008C0
:10005000F3010008F3010008F3010008F3010008B0
:10006000F3010008F3010008F3010008F3010008A0
:10007000F3010008F3010008F3010008F301000890
:10008000F3010008F3010008F3010008F301000880
:10009000F3010008F3010008F3010008F301000870
:1000A000F3010008F3010008F3010008F301000860
:1000B000F3010008F3010008F3010008F301000850
:1000C000F3010008F3010008F3010008F301000840
:1000D000F3010008F3010008F3010008F301000830
:1000E000F3010008F3010008F3010008F301000820
:1000F000F3010008F3010008F3010008F301000810
:10010000F3010008F3010008F3010008F3010008FF
:10011000F3010008F3010008F3010008F3010008EF
:10012000F3010008F3010008F3010008F3010008DF
:10013000F30100080000000000000000F3010008C7
:10014000F3010008F3010008F3010008F3010008BF
:10015000F3010008F3010008F3010008F3010008AF
:10016000F3010008F3010008F3010008F30100089F
:10017000F3010008F3010008F3010008000000008B
:1001800000000000F3010008000000000000000073
:10019000F30100080000000000000000F301000867
:1001A000000000000000000000000000F301000853
:1001B000F3010008F3010008F3010008F30100084F
:1001C000F3010008DFF80CD000F082F80048004787
:1001D0006514000850040020064880470648004780
:1001E000FEE7FEE7FEE7FEE7FEE7FEE7FEE7FEE7E7
:1001F000FEE7FEE77D120008C50100082DE9F05F6B
:100200000546002092469B46884606468146402485
:100210001BE0284641464746224600F048F8534630
:100220005A46C01A914110D311461846224600F092
:100230002FF82D1A67EB01084F46224601200021B6
:1002400000F026F817EB00094E41201EA4F101042E
:10025000DFDC484631462A464346BDE8F09FD2B22D
:1002600001E000F8012B491EFBD270470022F6E79F
:1002700010B513460A4604461946FFF7F0FF20461C
:1002800010BD421C10F8011B0029FBD1801A7047D9
:10029000202A04DB203A00FA02F100207047914046
:1002A000C2F1200320FA03F3194390407047202A3B
:1002B00004DB203A21FA02F00021704721FA02F310
:1002C000D040C2F120029140084319467047000017
:1002D000064C074D06E0E06840F0010394E8070093
:1002E00098471034AC42F6D3FFF770FFFC140008B7
:1002F0001C150008FEE7704770B5044600F0E8F8EA
:100300000546601C02D004480078044400F0E0F880
:10031000401BA042FAD370BD000000202DE9F84F29
:1003200000224FF0010803254FF00F0E0B6808FA6A
:1003300002F42340A3426ED14E68012E05D0022E56
:1003400003D0112E01D0122E12D186684FEA420C32
:1003500005FA0CF7BE43CF6807FA0CF737438760FE
:100360004668A6430C79C4F30014944034434460B7
:10037000C668570005FA07FC8C6826EA0C06BC40E4
:100380003443C4604C68022C01D0122C13D1D40821
:1003900000EB8404A346D4F8209054074FEAD46AB3
:1003A0000EFA0AF629EA06090E6906FA0AF646EA7C
:1003B0000906CBF8206006680C7926EA0C0604F0E2
:1003C0000304BC40344304604C68E40060D5334C03
:1003D000266846F480462660246822F0030604F46A
:1003E000804400942E4C3444A446D4F80848960720
:1003F000370F0EFA07F6B4432A4EB04201D1002659
:100400001FE0294EB04201D101261AE0274EB0422A
:1004100002D1022615E03BE0254EB04201D1032671
:100420000FE0244EB04201D104260AE0224EB04231
:1004300001D1052605E0214EB04201D1062600E09B
:100440000726BE402643CCF808681D4E34684F6826
:100450009C43FF0300D51C433460194E361D34689D
:100460004F689C43BF0300D51C433460144E0836CC
:1004700034684F689C43FF0200D51C433460104E23
:100480000C3634684F689C43BF0200D51C4334606F
:10049000521C102AFFF44AAFBDE8F88F44380240DE
:1004A0000030014000000240000402400008024009
:1004B000000C0240001002400014024000180240EC
:1004C000003C01400AB1816170470904FBE700006C
:1004D00001488068704700000000002002488168E1
:1004E0000278114481607047000000200B4810B56D
:1004F000016841F400710160016841F480610160AC
:10050000016841F480710160032000F061F800206F
:1005100000F006F800F024F8002010BD003C024076
:1005200070B50D4D04464FF47A712878B1FBF0F0A8
:100530000A490968B1FBF0F000F01AFD48B9102C27
:1005400007D200222146501E00F022F800206C60E5
:1005500070BD012070BD0000000000200C000020D4
:100560000A4808B5016841F480410160006800F460
:10057000804000900548001F016841F080510160F3
:10058000006800F08050009008BD00004438024030
:10059000F0B40E4B1B680C46C3F30223C3F10705EE
:1005A000042D00D90425191D072901D2002300E0DC
:1005B000DB1E012606FA05F1491E214099409E40A6
:1005C000761E16403143F0BC00F02DBF0CED00E06C
:1005D000064900F0070208684FF6FF03184040EA9A
:1005E0000220034A10430860704700000CED00E051
:1005F0000000FA052DE9F84F044600260078F84D72
:100600003746C00708D02868A16B20F0C0600843B7
:100610002860A06B00B901262078800708D52868DB
:10062000E16B20F0C05008432860E06B00B9012660
:10063000207840070ED52868216B20F4401008432D
:100640002860206BB0F5801F01D010B102E00126B8
:1006500000E00127207800070ED52868616B20F4A0
:10066000400008432860606BB0F5800F01D010B1E6
:1006700002E0012600E0012720784FF0000A800602
:100680004FF0010B63D5D6484C38016841F08051DA
:1006900001600068DFF84C9300F080500090D9F8BA
:1006A000001041F48071C9F80010FFF711FF804677
:1006B00006E000BFFFF70CFFA0EB080002286FD890
:1006C000D9F80000C005F5D5DFF81483A8F11C089F
:1006D000D8F8000010F4407024D0B4F8401001F4B1
:1006E000407181421ED0D8F80010BF4A21F44071F9
:1006F000C2F800B0C2F800A0C8F80010D8F8000096
:10070000C0070FD0FFF7E4FE814607E0FFF7E0FEE9
:10071000A0EB090141F288308142D0D8D8F800001E
:100720008007F3D5216CAE48C1F301228438032A37
:1007300037D0016821F4F811C0F80010D8F8001083
:10074000B4F84020C2F30B021143C8F8001020781F
:10075000C00604D5A54894F85810C0F8E0112078D8
:100760000106A34805D50168E26C21F4400111435C
:1007700001602178490605D50168A26C21F08061ED
:10078000114301602188C90514D50168626D21F00B
:10079000006111430160616DB1F1006F09D009E0A2
:1007A0001DE10268934B22F4F81219400A430260DB
:1007B000C4E701272188890505D50168626C21F00D
:1007C0008051114301602188DFF82C92490509D539
:1007D0000168226D21F0005111430160206DB0F1DC
:1007E000005F04D01EB92068B0F5006F7ED1834948
:1007F000C1F868A0FFF76CFE794E80468C3E05E09C
:10080000FFF766FEA0EB0800022886D830680001DA
:10081000F6D421687A48CA0701D0A26B1AB18907B9
:1008200017D5E16BA9B901680268C1F30141491C00
:10083000D4E9013C43EA8C1321F0004CC2F303627B
:1008400009EB0C4141EA02610B43217D43EA01714E
:10085000016021684A0703D5226BB2F5801F05D0DD
:10086000090721D5616BB1F5800F1DD101680268C0
:10087000C1F30141491CD4E9013C43EA8C1321F046
:10088000004C09EB0C4194F810C0C2F3027241EA2B
:100890000C610B4343EA027101602968A26A21F0EE
:1008A0001F01521E11432960218849051AD5216D67
:1008B000B1F1005F16D101680268C1F30141491C22
:1008C000D4E9013C43EA8C13D4F80CC0C2F30272A1
:1008D0004FEA5C0809EB084C4CEA41610B4343EAE0
:1008E000027101602188090511D500E01FE0D4E9FB
:1008F000011241EA8211E268530809EB0342237CAA
:1009000042EA03621143227D41EA027101603B49E0
:10091000C1F868B0FFF7DCFD804605E0FFF7D8FDC1
:10092000A0EB0800022874D830680001F6D5EFB3B8
:10093000DFF8C880C8F870A0FFF7CAFD304E074640
:10094000843E04E0FFF7C4FDC01B022861D8306874
:10095000C0438000F6D521682A484A0701D5226B9A
:100960001AB109071DD5616BD9B90168D4E906230D
:10097000C1F30141491C42EA831221F0004309EB13
:10098000034194F8243041EA03610A430260296874
:10099000E26A6FF0FF0321F4F85103EB02221143E6
:1009A00029602188C90514D5616D00E038E0B1F1F6
:1009B000006F0ED10168D4E9062342EA8312236A4C
:1009C000C1F303615C0809EB044343EA01610A4394
:1009D0000260C8F870B0FFF77BFD04461CE018E029
:1009E0008C38024000700040400E474200104742E1
:1009F00094380240FFFCFF0F0000FFFF0000474259
:100A00008438024088380240FFF762FD001B02284C
:100A100002D90320BDE8F88F3068C0438000F3D4CA
:100A20000020F7E72DE9F0470E46050065D0DFF816
:100A30001481D8F80000F7B200F00F00B04207D2DE
:100A400088F80070D8F8000000F00F00B04254D1D0
:100A500028683D4C810712D5400703D5206840F433
:100A6000E05020602878000703D5206840F46040FB
:100A700020602068A96820F0F000084320602878F2
:100A8000C0072DD0304968680839012812D00228E3
:100A900013D0032811D00968890700292DDA2168AD
:100AA00021F0030101432160FFF712FD814641F26D
:100AB000883A0EE009688903EFE709688901ECE7E5
:100AC000FFF706FDA0EB0901514502D90320BDE85F
:100AD000F0872068696800F00C00B0EB810FEFD15F
:100AE000D8F80010404601F00F01B14207D9077055
:100AF000006800F00F00B04201D00120E7E728783D
:100B0000400705D52068E96820F4E05008432060DC
:100B10002878000706D52068296920F4604040EA5B
:100B2000C100206000F038F82168084AC1F30311C1
:100B3000515CC8400649086006480068FFF7F0FCB1
:100B40000020C4E7003C024008380240E4140008DA
:100B50000C000020040000200448054900680968D2
:100B6000044AC1F38221515CC84070470C00002048
:100B700008380240F4140008044805490068096870
:100B8000044AC1F34231515CC84070470C00002058
:100B900008380240F4140008224810B5006810F02C
:100BA0000C02214815D04110042A11D01D4C241FDD
:100BB000082A0FD00C2A0CD12268236802F03F02C9
:100BC0005B0221D52068C0F38810A0FB010120E062
:100BD000084610BD2268236802F03F025B0205D57B
:100BE0002068C0F38810A0FB010104E02168C1F374
:100BF0008811A1FB00010023FFF700FB2168C1F36E
:100C00000141491C49000AE02168C1F38811A1FB98
:100C100000010023FFF7F2FA2168C1F30271B0FB73
:100C2000F1F010BD083802400024F4002DE9F84F1F
:100C30000546DFF828B30078ABF10407C007A7F139
:100C4000040451D0DBF800105846C1F3810101299A
:100C50000FD00168C1F38101022902D1396849022C
:100C600007D40068C0F38100032809D13868400226
:100C700006D52068800337D56868002872D033E035
:100C80006868B0F5803F10D0B0F5A02F206810D074
:100C900020F480302060206820F480202060686884
:100CA000A8B1FFF715FC06460DE0206840F480303F
:100CB000F4E740F480202060F7E700BFFFF708FC6E
:100CC000801B642878D820688003F7D50CE0FFF7F4
:100CD000FFFB064605E000BFFFF7FAFB801B642818
:100CE000F0D820688003F7D42878DFF87492800762
:100CF0004FF0000A46D5DBF80010584611F00C0FF3
:100D00000FD00168C1F38101022902D1396849027B
:100D100007D50068C0F38100032809D13868400274
:100D200006D42068800715D5E86801281AD111E09B
:100D3000E868C0B10120C9F80000FFF7C9FB06460A
:100D400005E000BFFFF7C4FB801B0228BAD820686B
:100D50008007F7D52068296920F0F80040EAC10033
:100D600020600FE0F7E0C9F800A0FFF7B1FB0646EE
:100D700005E000BFFFF7ACFB801B02281CD82068F1
:100D80008007F7D42878000727D5DFF8D081754889
:100D9000696908F16C0881B101210160FFF798FBD6
:100DA000064604E0FFF794FB801B022804D8D8F81D
:100DB00000008007F6D510E089E0C0F800A0FFF73A
:100DC00087FB064605E000BFFFF782FB801B022879
:100DD0007DD8D8F800008007F6D42878400769D578
:100DE0005E484FF0000838300068C0000BD45B4804
:100DF0003830016841F08051016000684FF001080F
:100E000000F080500090584E3068C00511D4306812
:100E100040F480703060FFF75BFB009006E000BF9D
:100E2000FFF756FB0099401A022850D83068C005D9
:100E3000F6D54A4EA868683601280FD005283068D4
:100E400010D020F001003060306820F004003060E5
:100E5000A868B8B1FFF73CFB00900FE0306840F0A5
:100E60000100F4E740F004003060F7E7FFF730FBE3
:100E70000099411A41F28830814264D83068800775
:100E8000F4D50EE0FFF724FB009007E0FFF720FB0E
:100E90000099411A41F28830814254D83068800765
:100EA000F4D4B8F1000F05D02C483830016821F097
:100EB00080510160A869A8B3DBF80010C1F381017B
:100EC000022948D00228C9F860A005D000E03AE025
:100ED000FFF7FEFA054639E0FFF7FAFA064604E0A6
:100EE000FFF7F6FA801B02282DD820688001F7D47E
:100EF000F5E907010843E9681C4A490802EB01418A
:100F0000AA6841EA82110843297C40EA0160297DF0
:100F100040EA017038600120C9F86000FFF7D8FA94
:100F2000054606E015E000BFFFF7D2FA401B022895
:100F300009D820688001F7D50BE000BFFFF7C8FA99
:100F4000401B022802D90320BDE8F88F20688001E9
:100F5000F4D40020F8E70120F6E70000083802404A
:100F600000004742800E4742007000400000FFFF33
:100F700010B5401EB0F1807F01D3012010BD4FF0AD
:100F8000E02460610F21601700F04DFA0020A0619D
:100F900007202061002010BD70B5040004D094F833
:100FA0003900002510B106E0012070BD84F83850EA
:100FB000204600F023F8242084F839002068C16816
:100FC00021F40051C160204600F066F920680169F3
:100FD00021F4904101612068416921F02A014161B9
:100FE0002068C16841F40051C160E563202084F8A5
:100FF000390084F83A00002070BD000010B586B0BA
:10100000044614216846FFF731F9134920688842E5
:1010100020D11248016841F400310160006800F4F9
:10102000003005900D481038016841F00101016061
:101030000068694600F0010005900C200090022035
:10104000019001200290032003900720049004489F
:10105000FFF764F906B010BD00440040403802407C
:10106000000002402DE9F843044690F839001F467D
:1010700016460D46202850D1B5B1AEB194F83800CF
:1010800001284AD0012084F838004FF00008C4F845
:101090003C80212084F83900FFF71AFAA6848146A3
:1010A000E68484F8388026E00120BDE8F883E08CEF
:1010B000401EE084A0684B46B0F5805F4FF0000210
:1010C0004FF080012046009703D000F079F9E8B98D
:1010D0000DE000F075F9C8B928882168C0F3080050
:1010E0004860206908B16D1C05E0AD1C03E0216873
:1010F00015F8010B4860E08C0028D8D14B4600223F
:1011000040212046009700F05BF908B10320CCE7AE
:10111000202084F839000020C7E70220C5E7FEE759
:1011200030B587B014216846FFF7A0F825480024A1
:10113000016841F004010160016801F004010591BA
:10114000016841F080010160016801F080010591B2
:10115000016841F001010160016801F001010591A0
:10116000016841F0020101600068174D00F00200C3
:101170000590002220212846FFF7A4F94FF40050E3
:1011800000901248CDE9010469461148FFF7C6F8FE
:10119000202000900120CDE90104694628460394EF
:1011A000FFF7BCF84FF4E05000900220CDE90104B5
:1011B000032003900A20049069462846FFF7AEF802
:1011C00007B030BD3038024000000240000021105E
:1011D00000080240FEE7704770477047FFF77EB98E
:1011E00030B5ABB0342117A8FFF740F8142124A87C
:1011F000FFF73CF85C216846FFF738F81D480025EA
:10120000016841F080510160006800F08050299031
:101210001948016821F4404141F4804101600068AF
:10122000022400F4404029900120179000041890F7
:101230008001CDE91D4004201F904820CDE9200405
:101240000320CDE9220417A8FFF7F0FC24A90F2002
:1012500081E83100E002CDE92705022124A8FFF74B
:10126000E1FBE001009015956846FFF7C3F92BB04C
:1012700030BD000040380240007000400548016861
:1012800041F47001016003494FF00060803908604B
:101290007047000088ED00E02DE9F0410446006849
:1012A0000169E26821F44051114301612169A0689C
:1012B000E26908436169114308432168CA6849F239
:1012C0000C639A430243CA6020684169A26921F411
:1012D000407111434161E069192764253226B0F558
:1012E000004F354A354920684FF0000806D0884243
:1012F00001D0904236D1FFF73FFC35E0884201D063
:10130000904202D1FFF738FC01E0FFF725FC61684D
:101310004A18A0FB070148EB0803FEF76FFF0146E0
:10132000B0FBF5F00201B1FBF5F06FF01803584384
:1013300001EB800006EBC000B0FBF5F000F0F80018
:1013400002EB4002B1FBF5F0584301EB800006EBE5
:10135000C000B0FBF5F000F0070021681044886081
:10136000BDE8F081FFF7F8FB61688B0F8A00A0FBF6
:101370000701FEF743FF0146B0FBF5F06FF01802DE
:10138000504301EB800006EB0010B0FBF5F000F0DD
:10139000F002B1FBF5F002EB0012B1FBF5F06FF0DB
:1013A0001803584301EB800006EB0010B0FBF5F08A
:1013B00000F00F00D1E700000014014000100140D0
:1013C0002DE9F041984617460E460446069D1DE05D
:1013D000681C1BD02DB1FFF77BF8A0EB0800A842DA
:1013E00014D92068C16821F4D071C16020684169B6
:1013F00021F001014161202084F8390084F83A008D
:10140000002084F838000320BDE8F08120680068DF
:1014100036EA000004D00020B842D9D00020F3E71B
:101420000120F9E7FEE70907090E002804DB00F1B7
:10143000E02080F80014704700F00F0000F1E02079
:1014400080F8141D704702E008C8121F08C1002A66
:10145000FAD170477047002001E001C1121F002A35
:10146000FBD17047FFF742F8FFF7BAFEFFF758FECF
:10147000164815490C2201604FF4E131416000210A
:101480008160C160C0E904128161C161FFF784FD20
:101490000FA42046FEF7F5FE82B24FF6FF752B46ED
:1014A00021460A48FFF7DEFD4FF47A762046FEF724
:1014B000E8FE82B22B4621460448FFF7D3FD3046B2
:1014C000FEF71AFFF2E70000004400401000002081
:1014D00048656C6C6F2C204E75636C656F2046758B
:1014E0006E21000000000000000000000102030463
:1014F0000607080900000000010203041C1500088B
:101500000000002010000000461400082C15000800
:1015100010000020400400005614000801000000E4
:0C15200010000000000000000024F40097
:04000005080001C529
:00000001FF
